:020000040800F2
:10000000180B002091010008AD200008531C0008C7
:1000100000000000000000000000000000000000E0
:10002000000000000000000000000000B1200008F7
:100030000000000000000000AF200008B52000080C
:10004000A301000800000000A3010008A3010008AC
:10005000A3010008A3010008A3010008A3010008F0
:1000600000000000A3010008A3010008A30100088C
:10007000A30100082D210008A301000800000000D2
:10008000A3010008A301000800000000A30100086C
:10009000A3010008A3010008A3010008A3010008B0
:1000A000A3010008A3010008A3010008A3010008A0
:1000B000A301000800F002F800F03EF80CA030C8E0
:1000C000083824182D18A246671EAB4654465D46D4
:1000D000AC4201D100F030F87E460F3E0FCCB64660
:1000E0000126334200D0FB1AA246AB4633431847E1
:1000F000C4340000E4340000103A02D378C878C158
:10010000FAD8520701D330C830C101D504680C6059
:10011000704700000023002400250026103A01D378
:1001200078C1FBD8520700D330C100D50B607047AF
:100130001FB51FBD10B510BD00F0F1F91146FFF756
:10014000F7FF02F0B7FE00F009FA03B4FFF7F2FF81
:1001500003BC00F0DDF9000070B505460C461646FC
:1001600002E00FCC0FC5103E102EFAD2082E02D39B
:1001700003CC03C5083E042E07D301CC01C5361FAE
:1001800003E021782970641C6D1C761EF9D270BDC5
:100190000748804707480047FEE7FEE7FEE7FEE71F
:1001A000FEE7FEE704480549054A064B7047000094
:1001B0002B210008B500000818050020180B0020AE
:1001C000180700201807002010B5202A04DB084675
:1001D000203AD040002110BD0B462024D340D0400F
:1001E000A21A91400843194610BDFEB505461046B7
:1001F0000C46184373D0AE468C460020AD1A01461B
:100200009C4167D36646002701243D46B61A9D41AE
:1002100002D313463A462124654676462F04360C0F
:100220003E432D0CB61A9D4104D3150C1B042B43E1
:1002300012041034654676462F06360A3E432D0AD0
:10024000B61A9D4104D3150E1B022B43120208342B
:10025000654676462F0736093E432D09B61A9D415D
:1002600004D3150F1B012B431201241D654676464E
:10027000AF07B6083E43AD08B61A9D4104D3950FAB
:100280009B002B439200A41C65467646EF07760838
:100290003E436D08B61A9D411AD392185B41641C07
:1002A00016E00018764665464941B71A9D4101910E
:1002B000009009D36046B11A98418E468446009852
:1002C00001990025401C6941DD0752082A435B085B
:1002D000641EE6D57246634603B0F0BDFFE700201A
:1002E0000146C046C0462A462346F5E7F8B5042A2B
:1002F0002CD3830712D00B78491C0370401C521E6C
:1003000083070BD00B78491C0370401C521E8307D7
:1003100004D00B78491C0370401C521E8B079B0FA6
:1003200005D0C91ADF002023DE1B08C90AE0FFF749
:1003300013FFF8BD1D4608C9FD401C46B4402C43C0
:1003400010C0121F042AF5D2F308C91A521EF0D4A5
:100350000B78491C0370401C521EEAD40B78491CD0
:100360000370401C012AE4D409780170F8BD01E053
:1003700004C0091F0429FBD28B0701D50280801C11
:10038000C90700D00270704700290BD0C30702D004
:100390000270401C491E022904D3830702D5028043
:1003A000801C891EE3E70022EEE70022DFE700223F
:1003B00003098B422CD3030A8B4211D300239C46A2
:1003C0004EE003460B433CD4002243088B4231D31A
:1003D00003098B421CD3030A8B4201D394463FE0AE
:1003E000C3098B4201D3CB01C01A524183098B420E
:1003F00001D38B01C01A524143098B4201D34B01F7
:10040000C01A524103098B4201D30B01C01A524159
:10041000C3088B4201D3CB00C01A524183088B42E0
:1004200001D38B00C01A524143088B4201D34B00C9
:10043000C01A5241411A00D201465241104670473B
:100440005DE0CA0F00D04942031000D34042534040
:1004500000229C4603098B422DD3030A8B4212D300
:10046000FC22890112BA030A8B420CD38901921132
:100470008B4208D3890192118B4204D389013AD06F
:10048000921100E08909C3098B4201D3CB01C01A44
:10049000524183098B4201D38B01C01A5241430957
:1004A0008B4201D34B01C01A524103098B4201D345
:1004B0000B01C01A5241C3088B4201D3CB00C01AB2
:1004C000524183088B4201D38B00C01A5241D9D2CA
:1004D00043088B4201D34B00C01A5241411A00D24B
:1004E0000146634652415B10104601D34042002B47
:1004F00000D54942704763465B1000D3404201B5C6
:100500000020C046C04602BD7047704770470000DB
:1005100001491820ABBEFEE7260002007047754671
:1005200000F024F8AE46050069465346C008C000F6
:10053000854618B020B5FFF735FE60BC0027490896
:10054000B6460026C0C5C0C5C0C5C0C5C0C5C0C56B
:10055000C0C5C0C5403D49008D46704710B5044632
:10056000C046C0462046FFF7F0FD10BD004870476A
:10057000B804002072B6FEE706490020C8610648AC
:1005800001690422114301610169402211430161A3
:10059000704700009804002000200240064A002115
:1005A000D16106490A6902231A430A614861086950
:1005B0004022104308617047980400200020024048
:1005C00010B5054B0022DA61044A13690124234364
:1005D0001361018010BD000098040020002002403B
:1005E00010B500200A4AD168CB060A4904D5C8696B
:1005F00002231843C8611020D3685B0705D5CB6977
:1006000001242343CB6104210843D06010BD0000C6
:10061000002002409804002070B5044600F024FB3E
:100620000546104E0AE0601C08D0002C04D000F0F3
:100630001BFB401BA04201D9032070BDF068C0071E
:10064000F1D1F068800601D52020F060F068C00686
:1006500002D4F068400703D5FFF7C2FF012070BD48
:10066000002070BD00200240F8B500250022009255
:1006700004462034227D012A39D0012323750268E3
:10068000966876076AD43A4F4E68BE4250D0966A52
:100690000F78BB401E4396620123C26A1B079A4231
:1006A0001FD0012A1DD0022A1BD0032A19D0042AE8
:1006B00017D0052A15D0062A13D0072A11D00268B0
:1006C0008B6856697607760FB3420AD05369DB0808
:1006D000DB005361006842690B7A5B075B0F1A43CA
:1006E00042610868102804D0112802D03BE00220A3
:1006F000F8BD204B9A68102807D0012080050243DE
:100700009A600868102803D02DE00120C005F6E7A4
:100710001A4819490068FFF74AFE0A214843009029
:1007200002E00098401E009000980028F9D11AE0DD
:10073000906A0E78B340984390620868102801D000
:10074000112810D10B498A68102804D00120800597
:1007500082438A6007E00120C005F9E7816B20220F
:10076000114381630125002020752846F8BD000053
:10077000011000000027014040420F006C000020E3
:10078000F8B504460025002C05D0A06B264620367F
:10079000002802D007E00120F8BD0020E06330759A
:1007A000204600F0A9F8A06B1022C006002870DBDC
:1007B0002068816849076CD4A16B13019943022317
:1007C0001943A16381688907890F012905D101684F
:1007D000C9070FD1C16809040CD4C1681823994313
:1007E000A3681943C16020680169636889008908AA
:1007F000194301612068C1683D4B1940C160207EEA
:100800008103607EC0030143A07E43031943A36AB2
:10081000012B02D001231B0300E000231943E368EE
:1008200019432369022B09D00023194333795B0054
:100830001943E67E0123012E02D00AE00423F4E7E7
:10084000002827D0A06B20263043A063E06B18431C
:10085000E063E0690646FF3EC23E02D0266A3043AE
:1008600001432068C6680E43C6600126E06A360769
:10087000B04213D0012811D002280FD003280DD088
:1008800004280BD0052809D0062807D0072805D052
:1008900010E027E0012000040143DAE72068466900
:1008A000F608F600466120684669A78D7F077F0F2E
:1008B0003E4346612068C0680E4E3040884207D1F2
:1008C0000020E063A06B80088000401CA0630DE066
:1008D000A06B022188431043A063E06B1843E063E0
:1008E000012503E0A06B1043A06301252846F8BD55
:1008F0001902FEFFE7FF3F8330B587B0044614219D
:1009000002A8FFF752FD17492068884228D11648EF
:10091000826941150A43826182690A4001924269F3
:1009200009020A43426142690A4001924269490050
:100930000A4342614069084001900B200290032560
:10094000039500240494092002A9C00600F0D2F8FF
:10095000022002900395049402A9044800F0CAF80A
:1009600007B030BD002401400010024000040048E0
:1009700070B5044600F078F90546601C02D00448C2
:100980000078241800F070F9401BA042FAD370BD23
:1009900060000020F8B505460F4601262248017E7A
:1009A00001290BD0012101762868204C012807D0AD
:1009B0002046FFF731FE002813D030E00220F8BDBA
:1009C0002046FFF729FE002829D1FFF7D5FD204654
:1009D000FFF722FE06461648016904229143016191
:1009E0001DE00020C04338606C6812E02046FFF72D
:1009F000D5FD0E48FFF710FE06460D48016902229C
:100A000091430161300001D03C6008E00120800288
:100A10002418A868696880024018A042E6D80248F5
:100A2000002101763046F8BD9804002050C3000034
:100A30000020024003480169802211430161002027
:100A40007047000000200240F0B51FB4074615466D
:100A50001E4600241A48017E012907D00121017693
:100A60001848FFF7D9FD002803D025E0022005B083
:100A7000F0BD012F03D0022F03D004271AE0012775
:100A800018E0022716E0220128463146FFF79CFBBA
:100A900081B2019862001018FFF792FD0948FFF734
:100AA000BBFD09490A69520852000A61002803D1B6
:100AB000641CE4B2BC42E6D3014900220A76D6E7C0
:100AC0009804002050C30000002002400020064986
:100AD0000A69120607D5054A4A60054A4A6009694B
:100AE000090600D501207047002002402301674518
:100AF000AB89EFCDF8B5002295E0012797403B4048
:100B0000002B7DD00C79A407A40F012C01D0022C5E
:100B100010D1856854000326A640B543CE68A64090
:100B20002E4386604468BC430D79ED06ED0F954079
:100B3000254345600C79E443A40708D0C5685400F8
:100B40000326A640B5438E68A6402E43C6600C79A6
:100B5000A407A40F022C0CD1D408A40027183D6AC6
:100B60005407E40E0F26A640B5430E69A6402E4357
:100B70003E62056854000326A640B5430E79B607C9
:100B8000B60FA6402E4306604C68A403A40F49D0BC
:100B9000284CA56901263543A561A4693440009419
:100BA0009508254CAD002F19BD689407240F0F261A
:100BB000A640B5430926F606B04201D100260FE053
:100BC0001E4EB04201D101260AE01D4EB04201D1B5
:100BD000022605E01B4EB04201D1032600E00526A7
:100BE000A6402E43BE60184D2C689C434E68F60309
:100BF00000D51C432C606C689C434E68B60300E033
:100C000010E000D51C436C60AC689C434E68F60253
:100C100000D51C43AC60EC689C434E68B60200D51E
:100C20001C43EC60521C0B681C46D44000D064E7A7
:100C3000F8BD000000100240000001400004004820
:100C400000080048000C0048000401400069084208
:100C500001D00120704700207047002A01D0816137
:100C6000704781627047000001488068704700004B
:100C7000600000200248816802788918816070470E
:100C80006000002010B50648016810221143016081
:100C9000032000F007F800F029F8002010BD000044
:100CA0000020024070B504460E4D7D202978C0001A
:100CB000FFF77DFB01460C480068FFF778FB00F06A
:100CC00023FB002801D0012070BD042C07D2002294
:100CD0002146501E00F02AF86C60002070BD0120F3
:100CE00070BD0000600000206C00002008B50848BE
:100CF0008169012211438161816911400091C269BA
:100D000001040A43C261C0690840009008BD0000A8
:100D100000100240002805DBC106C90E01208840F2
:100D2000014908607047000000E100E010B501F0E3
:100D300037FC10BDF8B504460D46002C12D04048D3
:100D40000068C007C00FA8420ED23D48016849089C
:100D50004900294301600068C007C00FA84203D0C2
:100D60000120F8BD0120F8BD2068364E81070CD562
:100D7000400704D571680720000201437160706864
:100D8000F0218843A168084370602078C0072BD009
:100D90006068012806D0022809D0316889070BD481
:100DA0000120F8BD3168890306D40120F8BD3168FF
:100DB000890101D40120F8BD7168890889000143C7
:100DC0007160FFF751FF074607E0FFF74DFFC11BBA
:100DD0001D48814201D90320F8BD70680C210840EC
:100DE000616889008842F0D115480168C907C90FB8
:100DF000A9420BD9016849084900294301600068EC
:100E0000C007C00FA84201D00120F8BD20784007DC
:100E100006D57068072109028843E16808437060BD
:100E200000F018F87168094A0906090F515CC840BA
:100E3000074908600320FFF735FF0020F8BD0000D8
:100E4000002002400010024088130000A435000872
:100E50006C00002010B588B019A043680268816852
:100E6000C068059304920691079019A001460EC927
:100E7000C0686C460EC40390194A53680C2019468A
:100E800001401848042913D0082911D19902090FEB
:100E900004AC645CD16A6A460907090F525CD90345
:100EA00008D500231946FFF7A0F9214601F052FBAF
:100EB00008B010BD20460C4901F04CFBF8E70000DB
:100EC00002030405060708090A0B0C0D0E0F10108B
:100ED0000102030405060708090A0B0C0D0E0F108A
:100EE0000010024000127A0000093D00FEB50446E1
:100EF000002C0ED02078FF4DC0075FD06868000737
:100F0000800F01280AD068680007800F022802D0ED
:100F10000CE00120FEBD6868C00307D52868800387
:100F20004CD56068002849D10120FEBD60680128C9
:100F300013D001218904002815D005281CD02A6867
:100F4000881082432A6028688843286060680028E7
:100F500026D0FFF789FE06461EE028680121090415
:100F600008432860F2E728680122120490432860B1
:100F7000286888432860E9E72868084328602968CA
:100F80000120000401432960E0E7FFF76DFE801BAC
:100F9000642801D90320FEBD28688003F5D50DE043
:100FA000FFF762FE064606E0FFF75EFE801B642840
:100FB00001D90320FEBD28688003F5D420780126DE
:100FC0008007002849DA68680007800F07D0686842
:100FD0000007800F022812D16868C0030FD4286868
:100FE000800704D5E068012801D00120FEBD2868F3
:100FF000F82188432169C900084328602DE0E06892
:10100000002818D0286830432860FFF72DFE0746D7
:1010100006E0FFF729FEC01B022801D90320FEBD10
:1010200028688007F5D52868F82188432169C90018
:101030000843286011E02868400840002860FFF756
:1010400013FE074606E0FFF70FFEC01B022801D97A
:101050000320FEBD28688007F5D42078000726D538
:10106000E069002811D0686A30436862FFF7FCFD30
:10107000074606E0FFF7F8FDC01B022801D9032050
:10108000FEBD686A8007F5D511E0686A4008400037
:101090006862FFF7E9FD074606E0FFF7E5FDC01BC4
:1010A000022801D90320FEBD686A8007F5D42078A4
:1010B00004274007002871DA00200190E869C00089
:1010C00008D4E969B8060143E961E9690140009182
:1010D0000120019088480168C90513D40168821570
:1010E00011430160FFF7C0FD029007E0FFF7BCFD70
:1010F0000299401A642801D90320FEBD7E48006889
:10110000C005F3D5A068012811D0002813D0052808
:1011100019D0286A400840002862286AB84328622B
:10112000A068002823D0FFF79FFD02901BE0286AEB
:1011300030432862F4E7286A400840002862286AA1
:10114000B8432862ECE7286A38432862286A3043AB
:101150002862E5E7FFF788FD0299411A6748814256
:1011600001D90320FEBD286A8007F3D50FE0FFF701
:101170007BFD029008E0FFF777FD0299411A5F4876
:10118000814201D90320FEBD286A8007F3D401986B
:10119000012803D1E96900078143E9612078C0068D
:1011A00040D5606901280CD0401D26D0686B3843BB
:1011B0006863686B400840006863FFF755FD0646AA
:1011C0002DE0686B38436863686B30436863FFF7F2
:1011D0004BFD064606E0FFF747FD801B022801D9BC
:1011E0000320FEBD686B8007F5D5696BF82081434D
:1011F000A069C0000143696314E0686BB843686389
:10120000686BF8218843A169C9000843686309E055
:10121000FFF72AFD801B022801D90320FEBD686B61
:101220008007F5D4206A00286CD069680907890F07
:10123000022947D001273F06022806D02868B84374
:101240002860FFF711FD044638E02868B84328609D
:10125000FFF70AFD064606E0FFF706FD801B0228A1
:1012600001D90320FEBD28688001F5D4E86AE16A4F
:10127000000900010843E862616AA06A08436968DE
:101280003D2212049143084368602868384328606F
:10129000FFF7EAFC044606E0FFF7E6FC001B022825
:1012A00001D90320FEBD28688001F5D52AE0FFF7AB
:1012B000DBFC001B022801D90320FEBD2868800149
:1012C000F5D41FE001281BD06868E96A01221204E6
:1012D000636A02409A420AD10907E26A090F914201
:1012E00005D10F2189040840A16A88420AD0012053
:1012F000FEBD000000100240007000408813000096
:101300000120F5E70020F3E710B50949401E8842A7
:1013100001D9012010BD074C60610321081F01F0B5
:101320003FF90020A06107202061002010BD0000CF
:10133000FFFFFF0000E000E07047704730B5024655
:101340002032137F012B26D001231377CB68002492
:1013500003252D02AB438D682B430125AD02AB4322
:101360004D682B430125ED02AB430D682B4301254E
:101370002D03AB430D692B4301256D03AB434D6931
:101380002B430125AD03C969AB430B43006843649C
:101390001477002030BD022030BD0000F0B50246B9
:1013A0002032137F012B1ED001261677022353779C
:1013B00003685D689C687027BD430F682F435F60BA
:1013C00000680A4B984205D0094B984202D0094B5D
:1013D000984204D180239C43496821438160567719
:1013E00000201077F0BD0220F0BD0000002C01406D
:1013F000000400400040014070B50446002C05D0B8
:1014000025462035687F002802D006E0012070BD07
:1014100000202877204600F015F802206877211D6B
:10142000206800F08BFE01224034A271AA77EA778F
:1014300022706270A270E270227162716A7700207D
:1014400070BD000010B586B00446142101A8FEF757
:10145000ACFF2B4A20682B49904210D18A69C014F6
:1014600002438A61896901400091002211460D20E2
:10147000FFF75CFC0D20FFF74DFC06B010BD224AC3
:10148000904207D1CA6980150243CA61C969014007
:101490000091F2E71D4B0122520498421AD18B6948
:1014A000501003438B618B690340009348691043DC
:1014B0004861486910400090042001900220029089
:1014C0000020039004900590092001A9C006FFF7B1
:1014D00011FBD2E70E4B984206D188691043886110
:1014E000886910400090C8E70A4A9042C5D18A69CD
:1014F0000120800402438A61896901400091BCE7B0
:10150000002C01400010024000200040004001403B
:101510000044014000480140014620314A7F012A31
:1015200001D00120704702224A770168CB6801226E
:101530001343CB6000680B49884205D00A498842B2
:1015400002D00A49884208D181684907490F062913
:1015500006D001681143016002E001681143016097
:1015600000207047002C0140000400400040014072
:101570000168CA6852085200CA6001680A6A084BCA
:101580001A4207D10A6A9B101A4203D10A6852080C
:1015900052000A600121203041770020704700008E
:1015A00011110000F8B50446002625462035287F95
:1015B000012817D0012028770220687720688268E8
:1015C0007727BA43FF231B029A438260086850289A
:1015D00038D00EDC202853D006DC002850D010284C
:1015E0001ED14DE00220F8BD302849D0402817D147
:1015F0003CE0602830D0702819D001221203801AF4
:101600000FD090420CD1CB684A688968206800F0FE
:10161000E6FD20688168012292031143816000E0A9
:10162000012601206877002028773046F8BDCB6876
:101630004A688968206800F0D2FD206881683943D3
:101640008160EEE7CA684968206800F0E5FE502135
:10165000206800F0CFFDE4E7CA684968206800F020
:1016600015FF6021206800F0C5FDDAE7CA68496807
:10167000206800F0D1FE4021206800F0BBFDD0E7DB
:1016800022680146104600F0B5FDCAE77047F8B57C
:1016900005460C4600272E462036307F01280ED006
:1016A00001203077002A0CD0042A1BD0082A2CD025
:1016B0000C2A3BD00127002030773846F8BD0220A5
:1016C000F8BDE36862682168286800F0B7FE286802
:1016D00082690C218A43826128688169A26811436A
:1016E0008161E8E7E36862682168286800F0E1FE4C
:1016F0002868816903229202914381612868816987
:10170000A268120211438161D5E7E368626821682B
:10171000286800F0E8FE2868C2690C218A43C2618B
:101720002868C169A2681143C161C4E7E3686268BF
:101730002168286800F0F1FE2868C169032292023E
:101740009143C1612868C169A26812021143C16155
:10175000B1E770B50446002C05D025462035687FDA
:10176000002802D006E0012070BD00202877204626
:1017700000F014F802206877211D206800F0DEFCDC
:1017800001224034A271AA77EA7722706270A270B7
:10179000E270227162716A77002070BD704770B587
:1017A0000446206801690025C9438907002916DB22
:1017B000C168C943890712D4E91E0161012020775D
:1017C00020688069800703D02046FFF75FFF05E0AF
:1017D000204600F0F1F8204600F085F925772068D2
:1017E0000169C943490718D4C168C943490714D4DA
:1017F0000421C943016102202077206880698005A7
:10180000800F03D02046FFF741FF05E0204600F09F
:10181000D3F8204600F067F9257720680169C943AD
:10182000090717D4C168C943090713D40821C9435C
:101830000161042020772068C069800703D020461A
:10184000FFF724FF05E0204600F0B6F8204600F040
:101850004AF9257720680169C943C90618D4C168C7
:10186000C943C90614D41021C94301610820207757
:101870002068C0698005800F03D02046FFF706FF6F
:1018800005E0204600F098F8204600F02CF9257776
:1018900020680169C943C90708D1C168C943C9079C
:1018A00004D1891E0161204600F0C4F92068016955
:1018B000C943090609D4C168C943090605D4802172
:1018C000C94301612046FFF737FD20680169C9431C
:1018D000490609D4C168C943490605D44021C94312
:1018E0000161204600F0B4F920680169C943890606
:1018F00009D4C168C943890605D42021C9430161BF
:101900002046FFF71AFD70BD70B586B0044614215D
:1019100001A8FEF74AFD234E012521680920002277
:10192000214B6D040224C006B14211D159692943EB
:1019300059615969294000910721090201910294D6
:1019400003920492059401A9FFF7D4F806B070BD84
:10195000164EB14210D1596929435961596929403C
:1019600000911021019102940392049204210591A7
:1019700001A9FFF7BFF8E9E70D488142E6D15869B0
:1019800001218904084358615869084000904812B1
:101990000190029403920492059401A90548FFF76F
:1019A000A9F8D3E7002C01400010024000200040BD
:1019B00000480140000400487047F8B504460D4651
:1019C000002726462036307F01280ED001203077B0
:1019D000002A0CD0042A1ED0082A33D00C2A45D065
:1019E0000127002030773846F8BD0220F8BD29468F
:1019F000206800F007FC206881690822114381619A
:101A00002068826904218A438261206881692A6989
:101A100011438161E5E72946206800F039FC206820
:101A200082690121C9020A43826120688169012219
:101A3000920291438161206881692A6912021143EF
:101A40008161CEE72946206800F068FC2068C16902
:101A500008221143C1612068C26904218A43C2611E
:101A60002068C1692A691143C161BAE72946206823
:101A700000F098FC2068C1690122D2021143C161C3
:101A80002068C269012189028A43C2612068C16954
:101A90002A6912021143C161A3E770B50446002C04
:101AA00005D025462035687F002802D006E00120B9
:101AB00070BD00202877204600F014F802206877D7
:101AC000211D206800F03AFB01224034A271AA7760
:101AD000EA7722706270A270E270227162716A7796
:101AE000002070BD7047704730B50446204622463E
:101AF00020304032002908D0042908D0082908D015
:101B00005378012B07D0012030BD837FF9E7C37FD5
:101B1000F7E71378F5E7022300292CD004292CD00D
:101B200008292CD053700122206800F04BFB174A83
:101B30002168174B914207D0994205D01548814240
:101B400002D01548814204D1486C0125ED03284399
:101B5000486420680124904204D01049884201D092
:101B600098420ED181684907490F06290CD00168B7
:101B70002143016008E08377D5E7C377D3E713708B
:101B8000D1E7016821430160002030BD002C0140F5
:101B90000040014000440140004801400004004072
:101BA00070B504460D4600222946206800F00AFB65
:101BB0001C491B4822688B10824208D01A48824276
:101BC00005D01A48824202D0194882420AD1106ACE
:101BD000084207D1106A184204D1506C0126F6035E
:101BE000B04350642068026A0A4206D1016A194271
:101BF00003D10168490849000160204620300121D5
:101C0000002D07D0042D07D04034082D06D0617078
:101C1000002070BD8177FBE7C177F9E72170F7E716
:101C2000002C01401111000000400140004401401F
:101C30000048014010B5044804490068884201D1B9
:101C400000F0B6FD10BD00002C030020002C014068
:101C50007047FEE73EB500240094019402942548A5
:101C60002349016044608460C4600125056104214A
:101C70004161047644768476C476FF21C231C16125
:101C80000462014620310C718562FEF779FD00285F
:101C900001D0FEF76FFC00940120000301900004C6
:101CA000029069461348FEF7DFFC002801D0FEF7DA
:101CB00061FC009569460F48FEF7D6FC002801D06C
:101CC000FEF758FC0320009069460A48FEF7CCFC5A
:101CD000002801D0FEF74EFC092000906946054817
:101CE000FEF7C2FC002801D0FEF744FC3EBD000018
:101CF00000240140EC020020F0B587B0142102A8B6
:101D0000FEF753FB2C4842690121C9040A43426192
:101D100042690A4001924269C9000A43426142692C
:101D20000A400192426949110A43426142690A40EC
:101D30000192426949000A434261406908400190AA
:101D40001E4D1F4F002229463846FEF786FFFE1320
:101D500000223146F003FEF780FF07204003029087
:101D600000240394049402A91648FEF7C3FE23201E
:101D7000800102900394049402A9F003FEF7BAFED6
:101D8000114802900394049402A93846FEF7B2FE6B
:101D90000295012503950494059402A93846FEF79F
:101DA000A9FE029603950494059402A9F003FEF798
:101DB000A1FE07B0F0BD00000010024018E00000D6
:101DC0000004004800080048E504000010B588B091
:101DD0001C2101A8FEF7E9FA1648154901602F21D8
:101DE0004160002484606321C16004618461FFF765
:101DF00003FB002801D0FEF7BDFB0E48FFF74DFEA8
:101E0000002801D0FEF7B6FB602001904F20029021
:101E100003940594002201A90648FFF7CEFD00288F
:101E200001D0FEF7A7FB0348FFF76EFD08B010BD19
:101E3000002000407403002010B58AB000240694EE
:101E400007940894099404940594009401940294CE
:101E500003941F481D490160446084601D49C160AE
:101E6000046144618461FFF7C7FA002801D0FEF7DE
:101E700081FB01200003069006A91548FFF792FB9D
:101E8000002801D0FEF776FB1148FFF762FC00281E
:101E900001D0FEF76FFB0494059404A90C48FFF7EA
:101EA0007DFA002801D0FEF765FB00940120019027
:101EB00002940394002269460548FFF7E8FB0028D6
:101EC00001D0FEF757FB0AB010BD000000400140F2
:101ED000BC030020FFFF000010B50A48084901605C
:101EE000002141608160084AC260016141618161F5
:101EF000FFF782FA002801D0FEF73CFB10BD00007E
:101F00000044014004040020FFFF000010B590B021
:101F10001C2109A8FEF749FA202101A8FEF745FA7D
:101F20002248214901602F21416000248460FF2163
:101F30007431C160046144618461FFF75DFA002877
:101F400001D0FEF717FB1948FFF7A7FD002801D0C5
:101F5000FEF710FB60200990FF202A300A900B94B6
:101F60000C940D940E940F94002209A90F48FFF7CA
:101F700024FD002801D0FEF7FDFA01940294039499
:101F800004940594012040030690089401A9074891
:101F9000FFF7D4F9002801D0FEF7ECFA0348FFF769
:101FA000B3FC10B010BD0000004801404C040020FC
:101FB00010B596B0002412941394149415941094B0
:101FC00011941C2109A8FEF7F0F9202101A8FEF7C1
:101FD000ECF93548334901602F2141608460FF21CD
:101FE000F431C160046144618461FFF705FA00289F
:101FF00001D0FEF7BFFA01200003129012A92A486F
:10200000FFF7D0FA002801D0FEF7B4FA2648FFF710
:1020100044FD002801D0FEF7ADFA1094119410A9E8
:102020002148FFF7BBF9002801D0FEF7A3FA602092
:102030000990FF2091300A900B940C940D940E940B
:102040000F94002209A91848FFF7B7FC002801D017
:10205000FEF790FA042209A91348FFF7AEFC002806
:1020600001D0FEF787FA082209A90F48FFF7A5FC5F
:10207000002801D0FEF77EFA0194029403940494A0
:102080000594012040030690089401A90648FFF733
:1020900055F9002801D0FEF76DFA0348FFF734FC2C
:1020A00016B010BD002C01402C030020FEE7704745
:1020B0007047000010B5012001F09EF9024901208F
:1020C0000860FEF7D7FD10BD1000002030B591B0BC
:1020D000302105A8FEF769F90024019402940394C5
:1020E000049411200590012006900A9010200B9076
:1020F00002250D9500030E9000010F90109405A885
:10210000FEF7F4FE002801D0FEF734FA0720019014
:10211000029503940494012101A8FEF70BFE002808
:1021200001D0FEF727FA11B030BD704710B5024854
:10213000FFF735FB10BD00002C030020F0B502684E
:102140001A4B1B4C984201D0A04203D17025AA43E0
:102150004D682A43174D184E184F98420AD0A04296
:1021600008D0174CA04205D0A84203D0B04201D0FD
:10217000B84204D103242402A243CC682243802421
:10218000A2434C69224302608A68C2620A68826282
:10219000984205D0A84203D0B04201D0B84201D144
:1021A0000969016301214161F0BD0000002C01407B
:1021B000000400400040014000440140004801404C
:1021C0000020004010B5C906C90E01238B40046AE7
:1021D0009C430462036A8A401343036210BD30B516
:1021E0008468FF252D02AC431B0213430B4323439A
:1021F000836030BD826870239A430A4307210A43F3
:1022000082607047F0B5026A520852000262056AA5
:10221000436882697024A243920892000C681443B8
:10222000022295438A682A43154E164FB04207D0C2
:10223000B84205D0144DA84202D0144DA84206D190
:102240000825AA43CD681543042295432A46B04287
:1022500007D0B84205D00C4DA84202D00B4DA84281
:1022600008D1FF250135AB436D00AB434D691D43DC
:102270008B692B4343608461496841630262F0BD0E
:10228000002C014000400140004401400048014052
:10229000F0B5026A10239A430262056A43688269B4
:1022A00007242403A24303242402A2430C6824022B
:1022B0001443202295438A6812012A43134EB042E8
:1022C00007D18025AA43CD682D01154340272A4612
:1022D000BA43B04208D00E4DA84205D00D4DA842D9
:1022E00002D00D4DA8420AD10125AD02AB436D00CD
:1022F000AB434D69AD001D438B699B002B4343608D
:102300008461496881630262F0BD0000002C0140D5
:10231000004001400044014000480140F0B5026A1D
:10232000FF2301339A430262046A4368C26970253D
:10233000AA43920892000D68154301225202944369
:102340008A6812022243134EB04207D1C7141446C2
:10235000BC43CA68120222430415A243B04208D00B
:102360000D4CA04205D00D4CA04202D00C4CA04216
:102370000AD101242403A3436400A3434C6924012C
:102380001C438B691B0123434360C5614968C163DA
:102390000262F0BD002C01400040014000440140B9
:1023A0000048014070B5026A01231B039A43026290
:1023B000046A4268C36907252D03AB4303252D0238
:1023C000AB430D682D021D4301235B039C438B68C7
:1023D0001E0326430C4B984208D00C4B984205D064
:1023E0000B4B984202D00B4B984206D10124A40318
:1023F0001346A3434A6992011A434260C561496882
:102400000164066270BD0000002C014000400140E4
:10241000004401400048014030B5036A046A640882
:10242000640004628469F025AC43120122430A244B
:10243000A3430B438261036230BD000070B5046AA0
:102440006408640004628469056A0D4EB04205D0D8
:102450000C4EB04202D00C4EB04203D1A408A400EE
:10246000144301E001221443F02294431A07120E90
:1024700022430A239D43194029438261016270BDB2
:10248000002C0140000400400040014030B5036AC8
:102490001024A34303628369046A0F252D03AB4311
:1024A00012031A43A0239C43090121438261016264
:1024B00030BD70B5046A1025AC4304628569046AB6
:1024C00003263602B54312022A430F252D03AA43E1
:1024D0001B071B0C1343A022944309011140214305
:1024E0008361016270BD30B5046AFF250135AC43DC
:1024F0000462C469056AA408A4001443F02294434A
:102500001A07120E224305235B029D430A2319403A
:1025100009022943C261016230BD70B5046A012518
:102520002D03AC430462C569046A03263602B54331
:1025300012022A430F252D03AA431B071B0C13432A
:102540000522520394430A22114009032143C36127
:10255000016270BDF8B5040C8BB2264682B25E43B0
:102560000D0C1046370C5843360480190021794170
:1025700016466E43370C36048019794126466E4361
:102580008919F8BD30B47446641E2578641CAB42CA
:1025900000D21D46635D5B00E31830BC18470000A5
:1025A0008307FF22DB0E9A408907090E9940002815
:1025B00008DB830809489B001818036893430B4302
:1025C000036070470007000F0838830804489B0029
:1025D0001818C36993430B43C361704700E400E0DC
:1025E00000ED00E010B508490022CA8008810749C3
:1025F000082000F079FFFF21F531082000F094FF5A
:1026000000F006F810BD0000480000201126000868
:1026100010B50B4CE088401CE08000F01DF8094923
:10262000092000F061FFC821092000F06BFFE0885D
:102630002189884202D3082000F086FF10BD0000E7
:10264000480000204926000810B500210148FFF786
:10265000A7FA10BD4C04002010B500210148FFF777
:1026600043FA10BD4C04002070B505460024054E09
:10267000E000801900F08EF82855641C092CF7DB67
:1026800070BD00005C3500080021024A8000115036
:1026900070470000100000208100034840580028C7
:1026A00000D0004770470000080000200349800068
:1026B0000858012800D000207047000010000020BA
:1026C000014A800011507047080000201FB501909A
:1026D00002910392FEF7FAF9694601A8FEF75AF94A
:1026E0000446FEF7A7F9204604B010BDF8B51B4814
:1026F00000F040F81A4A002701261A4C1A4D904261
:1027000014D0012215490020FFF7E0FF00281AD15C
:10271000164807801249114800F02EF80F48002192
:10272000801C00F029F826702E700CE00B48801CED
:1027300000F020F80D4908801C2802D226702E7067
:1027400001E027702F700A49042000F0CDFEC82157
:10275000042000F0E9FE00F063FAF8BD00FE000876
:102760005AA5000048000020490000205C0000201D
:10277000212C00080088704770B505460C46FEF70E
:10278000A5F92246002329460120FEF75DF9FEF750
:1027900051F970BD10B50446A1882068FEF756FABD
:1027A000A179884201D1012010BD002010BD000098
:1027B000F8B501212748FEF749FA01250026264CE5
:1027C00001281FD026700927FF0680213846FEF712
:1027D0003DFA012818D0667040213846FEF736FAD7
:1027E000012813D0A6706078A178400089004018B5
:1027F00021784018C0B2E0701749491E09780029B5
:1028000006D008E02570DEE76570E5E7A570EAE729
:102810000721081AE070E0780300FFF7B3FE0717FE
:10282000080E0B140511170000F08EFBF8BD00F028
:10283000A9FBF8BD00F0E2FBF8BD00F0C1FBF8BD5C
:1028400000F0FAFBF8BD00F015FCF8BD00F070FADE
:10285000F8BD00000004004801000020F3B581B07D
:10286000134E002131700121717035461035114928
:102870000C2250432F684418002F04D0A17A607AAC
:102880000023029AB84702988000225870780028E6
:1028900000D10022002A02D0A17A607A90476D68A8
:1028A000002D04D0A17A607A3378029AA847FEBD41
:1028B000180000206C010020FFB581B00E461F4DAE
:1028C0000020287001276F70284608300468002C0B
:1028D00004D000223146049B0198A04701981C2196
:1028E000484317494018B10044586978002900D17D
:1028F0000024002C0FD0012E0DD00399002902D006
:102900002F70002407E0807D002804D000F08AF8B2
:10291000012800DD0024002C03D02F7004990198B9
:10292000A047064808304468002C04D02A78314675
:10293000049B0198A04705B0F0BD000018000020DE
:102940007000002010B5FC21084800F02CFD07485D
:102950003021FC3000F027FD0821054800F023FD60
:102960000449012000F0C0FD10BD000070000020EF
:1029700020000020712B000800B5002200F03CF977
:10298000002800D00122104600BD0000F3B581B040
:1029900006460024002500F045F8214F02281DD1ED
:1029A0000C206043C319187A002814D0587AB0421A
:1029B00006D1987AFFF7E0FF002801D0012508E052
:1029C000987AB04205D1587AFFF7D6FF002800D098
:1029D0000125002D02D1641C042CE1D3002D17D059
:1029E00020460C2148433958002903D1C0194068BA
:1029F00000280DD00298002809DC0023F0B2012243
:102A00001946FFF759FF00212046FFF727FFFEBDBB
:102A10000022F0B21146029BFFF74EFFFEBD000000
:102A20006C01002010B500240023D8B2FFF7A4FFEA
:102A3000002800D0641C5B1C092BF6DB204610BD6F
:102A400070B505460023E8B21A460121FFF734FFAE
:102A500000240F4E0C2060438319187A002813D0ED
:102A6000587AA84204D1987AFFF786FF002807D148
:102A7000987AA84208D1587AFFF77EFF002803D041
:102A800001212046FFF7EAFE641C042CE2D370BD4E
:102A90006C010020FEB507466846FFF7E5FD0025FE
:102AA00000261C212A464A432F49684654181821FB
:102AB00040576156884208D0E17DC91949B2E17595
:102AC000142903DB2076E67500E0E675207E0128F8
:102AD0000ED0E660E8B200F08FF8617E814229D026
:102AE0006076002811D0012815D0022822D119E0E3
:102AF000E068002806D0C019E0600028EADA1B4828
:102B0000E060E7E71420E060E4E7A68266822846FA
:102B1000FFF796FF0EE0A682668200212846FFF7A7
:102B200035FF07E0A68266820023E8B21A4602213A
:102B3000FFF7C2FE607E022811D31020205E00281D
:102B40000DDDA18AC91909B2A182814207DBA682E3
:102B5000608A401C01B261822846FFF717FF6D1C96
:102B6000092D9EDBFEBD000070000020FFFFFF7FEF
:102B700010B5054C606800F02BFCFFF78BFF00F0F0
:102B800073FC606010BD00001800002010B51C230D
:102B9000044C43431B1989005A50002100F004F8EB
:102BA00010BD0000700000201C225043034A801812
:102BB0000182002181824182704700007000002064
:102BC00010B500F051FC0A4948600020094B002173
:102BD0001C224243D218D175401C0928F8DB05217C
:102BE000012000F0A1FC0520FFF754FF10BD0000FC
:102BF00018000020700000201C214843074940189D
:102C0000C068FF21F531884201DB022070470028AF
:102C100001DD012070470020704700007000002097
:102C200070B51D481D4C028809266501F606192A53
:102C30000FD8012208212046FEF70FF800221021AC
:102C40002046FEF70AF8002229463046FEF705F82E
:102C500070BD1B2A0FD8002208212046FDF7FDFF7A
:102C6000002210212046FDF7F8FF012229463046B8
:102C7000FDF7F3FF70BD002208212046FDF7EDFFB0
:102C8000012210212046FDF7E8FF002229463046A8
:102C9000FDF7E3FF70BD00005C0000200004004869
:102CA00001488078704700004800002070B5054654
:102CB000FFF7F6FF0B4C01462078884310D000F058
:102CC00037F80948FEF754FC6420FDF751FE28460A
:102CD00000F012F80448FEF71FFC0120A070E57018
:102CE00070BD0000480000202C0300200148C0787F
:102CF00070470000480000200549002804D0012842
:102D000001D1002008707047012008707047000052
:102D10000000002010B5FFF7C3FF002804D000F02A
:102D200007F802490020887010BD0000480000200C
:102D300010B50721002249030748FDF78EFF002147
:102D40000648FEF72DFF04210448FEF729FF08215D
:102D50000248FEF725FF10BD000400482C030020A8
:102D600030B585B014216846FDF71FFB1020009098
:102D7000012001900024029403940925ED06694680
:102D80002846FDF7B7FE002210212846FDF765FF13
:102D90000148447105B030BD480000200148407929
:102DA000704700004800002070B50546104C607860
:102DB00000281CD000210F48FEF7F2FE284600F044
:102DC00039F83220FDF7D4FD0A48FEF79DFD0021B9
:102DD0000848FEF789FE012060712571064906202A
:102DE00000F082FB7D218901062000F08BFB70BD85
:102DF0004800002074030020FD2D000810B5FFF7E7
:102E0000CDFF00280AD000F00FF8002807D000F00E
:102E10000BF8012802D10020FFF7C6FF10BD0120EA
:102E2000FFF7C2FF10BD00000148007970470000A5
:102E30004800002010B5012109230903DB06002802
:102E400006D0012803D100221846FDF706FF10BD69
:102E500001221846FDF701FF10BD000030B585B016
:102E6000FFF79CFF00281ED000211048FEF798FEB7
:102E700014216846FDF799FA102000900120019076
:102E80000024029403940925ED0669462846FDF7BF
:102E900031FE002210212846FDF7DFFE0448447170
:102EA000062000F051FB05B030BD00007403002087
:102EB00048000020FDF7E6FEFFF708F9FEF71CFFCB
:102EC000FEF7C8FEFFF774F8FEF780FFFEF7B4FFC9
:102ED000FFF702F8FFF71AF800F00AF900F02CF8F3
:102EE000FFF704FC0220FFF77DFBFFF72BFD00F04E
:102EF000B9F90649052000F0F7FAFFF731FFC821BC
:102F0000052000F0FFFA00F003F8FCE7C12B0008F1
:102F100070B500250024E0B2FFF7C8FB002806D0FA
:102F2000E0B2FFF7B1FBE0B2FFF7B6FB0125641C8E
:102F3000022CF0DB284670BD10B502490020FFF7D7
:102F4000BFFB10BD8B34000810B504210B48FEF701
:102F500027FE08210948FEF723FE094C052100221F
:102F600049032046FDF779FE00210448FEF7BCFD29
:102F7000012291032046FDF770FE10BD2C030020B6
:102F80000004004810B504210B48FEF709FE082193
:102F90000948FEF705FE094C03210022490320469B
:102FA000FDF75BFE00210448FEF79EFD0122D103E0
:102FB0002046FDF752FE10BD2C03002000040048FF
:102FC00010B500210B48FEF7EBFD08210948FEF77C
:102FD000E7FD094C0321002289032046FDF73DFE51
:102FE00004210448FEF780FD012251032046FDF72D
:102FF00034FE10BD2C0300200004004810B5002151
:103000000B48FEF7CDFD08210948FEF7C9FD094C24
:103010000321002249032046FDF71FFE0421044836
:10302000FEF762FD0122D1032046FDF716FE10BD1A
:103030002C0300200004004810B500210B48FEF7C7
:10304000AFFD04210948FEF7ABFD094C0321002226
:1030500089032046FDF701FE08210448FEF744FDE0
:10306000012251032046FDF7F8FD10BD2C0300207E
:103070000004004810B500210B48FEF791FD042123
:103080000948FEF78DFD094C052100224903204621
:10309000FDF7E3FD08210448FEF726FD0122910318
:1030A0002046FDF7DAFD10BD2C0300200004004887
:1030B00001798A0003498958002901D0006808472E
:1030C000704700003400002010B5084C07E020686D
:1030D00000F06DF9FFF7ECFF206800F074F920684C
:1030E00000F06DF90028F2D010BD00003000002083
:1030F00010B50748082314220449006800F05BF962
:1031000004490120FFF7DCFA10BD00009C010020FB
:1031100030000020C930000810B5FFF7C1FD0028BD
:1031200001D0FFF7F7FDFFF739FE002801D0FFF7C8
:1031300095FE10BD10B5194A00210120FFF726FDAC
:10314000174A00210220FFF721FD164A002107201F
:10315000FFF71CFD144A00210620FFF717FD134A54
:1031600000210820FFF712FDFFF718FE002807D105
:103170000720FFF701FC002803D00120FFF714FE11
:1031800010BD0620FFF7F8FB002803D00020FFF752
:103190000BFE10BD0020FFF707FE10BD2532000812
:1031A000353200080D320008FD310008B131000849
:1031B00010B5FF24F5342046FDF7DAFBFFF74EFE8D
:1031C0000B484168491C4160C80704D0FFF72CFE3A
:1031D000FFF7EAFD10BD2046FDF7CAFB05490520B3
:1031E00000F082F90449052000F08CF910BD0000C0
:1031F00054000020753400088813000010B5FFF754
:103200002DFE0020FFF7D0FD10BD000010B5FFF728
:1032100025FE0120FFF7C8FD01490120087010BDFF
:103220005400002010B5FFF775FD0120FFF73EFDAB
:1032300010BD000010B5FFF759FD01280DD1FFF7B3
:1032400069FDFF20F530FDF793FB0449052000F0F0
:103250004BF90349052000F055F910BD7F340008F3
:103260008813000010B5054A00210320FFF78EFCEB
:10327000034A00210420FFF789FC10BD3531000806
:1032800019310008F8B504460D460027FF43002D0C
:103290003FDB0220205EA8423BDD0020205E0028AC
:1032A00037DD012809D00421615EA94208D12046FA
:1032B00000F04FF8A080074628E00020A08025E01D
:1032C000204600F063F8A84220D0204600F05EF8C7
:1032D0000146204600F051F806462DB22F4613E075
:1032E0002946204600F035F801460C22A25EA0686F
:1032F0005143134641186B43C018FCF7F7FF2946AA
:10330000204600F026F80546B542E9D12088401E47
:1033100020803846F8BD0021415E002907DD0421E8
:103320000C22415E825E806851430818704700207D
:10333000704710B5002404804280848083818160BE
:1033400010BD0021415E002901DC012070470020F2
:1033500070470246491C08B20221515E814201DCDD
:10336000401A00B2704710B50021415E002903DD0C
:103370000421415EFFF786FF10BD0246491E08B2D8
:10338000002802DA5188081800B270470146888880
:103390000A888018401E00B202228A5E824201DC46
:1033A000801A00B2704710B5FCF7FDFF10BD10B5D4
:1033B000FFF7B1FF10BD10B5FFF7BBFF10BD10B593
:1033C000FFF7BFFF10BD10B5FFF7CDFF10BD000028
:1033D00000B50249096800F003F800BD3C00002078
:1033E000814201DB081A7047024A101A4018401C3B
:1033F00070470000FFFFFF7F074B084A1968521A09
:10340000824203DA801A401E186001E00818186032
:1034100001209860704700003C000020FFFFFF7F04
:10342000401A0549884202D34942884201DA012004
:103430007047002070470000FFFFFF3F00B50146C6
:103440000248006800F004F800BD00003C000020C5
:10345000044A121A8A4202DA881A401E704740183B
:1034600070470000FFFFFF7F0148006870470000C1
:103470003C00002010B50020FFF718FC10BD10B56F
:10348000FFF7D2FCFFF790FC10BD10B5FF2000F055
:1034900001F810BDF8B50646FFF7E6FF00900024DE
:1034A000104F2001C519297B002917D039580098E1
:1034B000FFF7B6FF002811D0A87B30420ED0687B02
:1034C000002804D0E0B2696800F02EF802E0E0B213
:1034D00000F03AF8A868002800D08047641C0A2C45
:1034E000DFDBF8BD4C02002000B5012200F002F83D
:1034F00000BD000003010248181881608273704704
:103500004C02002010B504460846FFF797FF02461C
:10351000044920010A50002240184273012101731E
:1035200010BD00004C02002070B505460C46214637
:103530002846FFF7E7FF03482901081844600121E6
:10354000417370BD4C020020020103480021101895
:1035500001734173704700004C02002000080048CE
:10356000002000000004004804000000000800489B
:1035700000400000000800480080000000040048EF
:10358000000400000000004800080000000400489B
:1035900080000000000400484000000000040048D3
:1035A00020000000000000000000000001020304F1
:1035B00006070809D435000800000020700000004C
:1035C000F80000084436000870000020A80A000037
:1035D00014010008000000000000000000000000CE
:1035E00000000000000000000000000000000000DB
:1035F00000000000000000000000000000000000CB
:10360000000000003C02002000000000000000005C
:1036100000000000000000000000000001010000A8
:10362000000000000000000000000000000000009A
:103630000000000001000000040000000000000085
:0436400000127A00FA
:04000005080000B53A
:00000001FF
