:020000040800F2
:10000000480A002091010008CD1D00087B19000856
:1000100000000000000000000000000000000000E0
:10002000000000000000000000000000D11D0008DA
:100030000000000000000000CF1D0008D51D0008D2
:10004000A301000800000000A3010008A3010008AC
:10005000A3010008A3010008A3010008A3010008F0
:1000600000000000A3010008A3010008A30100088C
:10007000A30100084D1E0008A301000800000000B5
:10008000A3010008A301000800000000A30100086C
:10009000A3010008A3010008A3010008A3010008B0
:1000A000A3010008A3010008A3010008A3010008A0
:1000B000A301000800F002F800F03EF80CA030C8E0
:1000C000083824182D18A246671EAB4654465D46D4
:1000D000AC4201D100F030F87E460F3E0FCCB64660
:1000E0000126334200D0FB1AA246AB4633431847E1
:1000F000C82C0000E82C0000103A02D378C878C160
:10010000FAD8520701D330C830C101D504680C6059
:10011000704700000023002400250026103A01D378
:1001200078C1FBD8520700D330C100D50B607047AF
:100130001FB51FBD10B510BD00F0DFF91146FFF768
:10014000F7FF02F001FB00F0F7F903B4FFF7F2FF4D
:1001500003BC00F0CBF9000070B505460C4616460E
:1001600002E00FCC0FC5103E102EFAD2082E02D39B
:1001700003CC03C5083E042E07D301CC01C5361FAE
:1001800003E021782970641C6D1C761EF9D270BDC5
:100190000748804707480047FEE7FEE7FEE7FEE71F
:1001A000FEE7FEE704480549054A064B7047000094
:1001B0004B1E0008B500000848040020480A002033
:1001C0004806002048060020FEB5054610460C46AD
:1001D000184373D0AE468C460020AD1A01469C41B0
:1001E00067D36646002701243D46B61A9D4102D3D7
:1001F00013463A462124654676462F04360C3E4384
:100200002D0CB61A9D4104D3150C1B042B4312046C
:100210001034654676462F06360A3E432D0AB61A36
:100220009D4104D3150E1B022B4312020834654670
:1002300076462F0736093E432D09B61A9D4104D351
:10024000150F1B012B431201241D65467646AF078F
:10025000B6083E43AD08B61A9D4104D3950F9B00E6
:100260002B439200A41C65467646EF0776083E4372
:100270006D08B61A9D411AD392185B41641C16E0B2
:100280000018764665464941B71A9D410191009094
:1002900009D36046B11A98418E4684460098019968
:1002A0000025401C6941DD0752082A435B08641E93
:1002B000E6D57246634603B0F0BDFFE70020014675
:1002C000C046C0462A462346F5E7F8B5042A2CD393
:1002D000830712D00B78491C0370401C521E830701
:1002E0000BD00B78491C0370401C521E830704D0AE
:1002F0000B78491C0370401C521E8B079B0F05D0C6
:10030000C91ADF002023DE1B08C90AE0FFF724FF1B
:10031000F8BD1D4608C9FD401C46B4402C4310C022
:10032000121F042AF5D2F308C91A521EF0D40B7812
:10033000491C0370401C521EEAD40B78491C037000
:10034000401C012AE4D409780170F8BD01E004C022
:10035000091F0429FBD28B0701D50280801CC90725
:1003600000D00270704700290BD0C30702D0027082
:10037000401C491E022904D3830702D50280801C39
:10038000891EE3E70022EEE70022DFE700220309EF
:100390008B422CD3030A8B4211D300239C464EE0A0
:1003A00003460B433CD4002243088B4231D303095C
:1003B0008B421CD3030A8B4201D394463FE0C3090E
:1003C0008B4201D3CB01C01A524183098B4201D326
:1003D0008B01C01A524143098B4201D34B01C01A11
:1003E000524103098B4201D30B01C01A5241C30889
:1003F0008B4201D3CB00C01A524183088B4201D3F8
:100400008B00C01A524143088B4201D34B00C01AE3
:100410005241411A00D201465241104670475DE0F8
:10042000CA0F00D04942031000D34042534000227B
:100430009C4603098B422DD3030A8B4212D3FC2224
:10044000890112BA030A8B420CD3890192118B42A3
:1004500008D3890192118B4204D389013AD09211B9
:1004600000E08909C3098B4201D3CB01C01A524174
:1004700083098B4201D38B01C01A524143098B423D
:1004800001D34B01C01A524103098B4201D30B0126
:10049000C01A5241C3088B4201D3CB00C01A52414B
:1004A00083088B4201D38B00C01A5241D9D2430832
:1004B0008B4201D34B00C01A5241411A00D201466F
:1004C000634652415B10104601D34042002B00D5D9
:1004D0004942704763465B1000D3404201B500209B
:1004E000C046C04602BD704770477047014918209A
:1004F000ABBEFEE7260002007047754600F024F808
:10050000AE46050069465346C008C000854618B08F
:1005100020B5FFF747FE60BC00274908B646002615
:10052000C0C5C0C5C0C5C0C5C0C5C0C5C0C5C0C5A3
:10053000403D49008D46704710B50446C046C04650
:100540002046FFF702FE10BD00487047E803002078
:1005500072B6FEE7F8B50025044620340095227DEA
:10056000012A39D00122227503689E68760767D474
:10057000384F4E68BE424DD09E6A0F78BA4016433F
:100580009E620123C26A1B079A421FD0012A1DD016
:10059000022A1BD0032A19D0042A17D0052A15D005
:1005A000062A13D0072A11D002688B68566976078D
:1005B000760FB3420AD05369DB08DB005361006851
:1005C00042690B7A5B075B0F1A4342610A68102A83
:1005D00004D0112A02D038E00220F8BD1E488368FA
:1005E000102A07D00122920513438360086810285F
:1005F00003D02AE00122D205F6E71948174900681E
:10060000FFF7C4FE0A21484300E0401E0090002886
:10061000FBD11AE0986A0E78B2409043986209685C
:10062000102901D0112910D10B488268102904D05B
:10063000012189058A43826007E00121C905F9E7A4
:10064000816B2022114381630125002020752846FB
:10065000F8BD0000011000000027014040420F00DB
:1006600050000020F8B500260446002805D0A06BF5
:1006700025462035002802D007E00120F8BD0020E3
:10068000E0632875204600F0A9F8A06B1022C00690
:10069000002870DB2068816849076CD4A16B1301C6
:1006A000994302231943A16381688907890F0129AE
:1006B00005D10168C9070FD1C16809040CD4C1680C
:1006C00018239943A3681943C160206801696368CE
:1006D00089008908194301612068C1683D4B1940B0
:1006E000C160207E617E8003C9030843A17E4B0365
:1006F0001843A36A012B02D001231B0300E000234F
:100700001843E36818432369022B09D000231843D8
:100710002B79E57E5B0018430123012D02D00AE00E
:100720000423F4E7002927D0A16B20252943A163E6
:10073000E16B1943E163E1690D46FF3DC23D02D023
:10074000256A294308432168CD680543CD6001250A
:10075000E16A2D07A94213D0012911D002290FD037
:1007600003290DD004290BD0052909D0062907D06B
:10077000072905D010E028E0012109040843DAE741
:1007800021684D69ED08ED004D6121684D69A78D27
:100790007F077F0F3D434D612168C9680E4D294099
:1007A000814207D10020E063A06B80088000401CDC
:1007B000A06308E0A06B022188431043A063E06BB4
:1007C0001843E06301263046F8BDA06B1043A063D8
:1007D000F8E700001902FEFFE7FF3F8330B587B05E
:1007E000044614216846FFF7CFFD16492068884269
:1007F00026D11548826941150A43826182690A40FF
:100800000592426909020A43426142690A4005921F
:10081000426949000A434261406903240840059047
:100820000B2000256A4631C209206946C00600F047
:1008300021F802206A4631C26946044800F01AF8DD
:1008400007B030BD00240140001002400004004801
:1008500070B5044600F0F4F80546601C02D0044868
:100860000078241800F0ECF8401BA042FAD370BDC9
:1008700044000020F8B5002303240125BAE02E46E9
:100880009E40B44632407CD00E79B607B60F012E9A
:1008900001D0022E17D186682746B6465E00B740C3
:1008A00000967646BE43B646CF68009EB740764671
:1008B0003743876046686746BE430F79FF06FF0FE0
:1008C0009F40374347600E79F643B6070ED0C6689F
:1008D0002746B4465E00B646B7406646BE43B446B9
:1008E0008F687646B74066463743C7600E79B607CD
:1008F000B60F022E14D1DE08B60036180096366AFE
:100900005F07B446FE0E0F27B646B7406646BE43A5
:10091000B4460F697646B74066463743009E376255
:1009200006682746B4465E00B646B7406646BE43F4
:100930000F79B446BF07BF0F7646B74066463743C8
:1009400007604E68B603B60F53D02D4FBE692E43D5
:10095000BE61BE699F08F607F60F2A4EBF00BE199A
:100960000096B6680F27B4469E07360FB646B740C6
:100970006646BE430927FF06B446B84202D10027A7
:1009800010E036E0204FB84201D101270AE01F4FA6
:10099000B84201D1022705E01D4FB84201D103271B
:1009A00000E005277646B74066463743009EB760AD
:1009B000184E36684F689643FF0300D51643154F0F
:1009C0003E607E684F689643BF0300D51643114FC3
:1009D0007E60BE684F689643FF0200D516430D4FF8
:1009E000BE60FE684F689643BF0200D51643094AB1
:1009F000D6605B1C0A681646DE4000D03FE7F8BDB3
:100A000000100240000001400004004800080048B7
:100A1000000C0048000401400069084000D001209B
:100A20007047426913460B401B0491430B4383619B
:100A30007047002A01D081617047816270470000D1
:100A40000148806870470000440000200248816827
:100A500002788918816070474400002010B506486C
:100A60000168102211430160032000F007F800F034
:100A700027F8002010BD00000020024070B5044699
:100A80000D4D7D202978C000FFF780FC01460B4802
:100A90000068FFF77BFC00F0BFFA002809D1042CA6
:100AA00007D200222146401E00F02AF800206C6088
:100AB00070BD012070BD00004400002050000020E7
:100AC00008B508488169012211438161816911409B
:100AD0000091C26901040A43C261C06908400090E4
:100AE00008BD000000100240002805DBC106C90E49
:100AF00001208840014908607047000000E100E0E3
:100B000010B501F097FB10BDF8B50F46060059D09F
:100B10003A4D2868C007C00FB84209D2286840087B
:100B20004000384328602868C007C00FB84249D148
:100B30003068334C81070CD5400704D56068072125
:100B40000902084360606068F0218843B168084387
:100B500060603078C00726D0706801280ED0216808
:100B600002280ED0890700292CDA616889088900DB
:100B700001436160FFF764FF00900DE02168890385
:100B8000F1E78901EFE7FFF75BFF0099411A1D4884
:100B9000814201D90320F8BD60680C2108407168CA
:100BA00089008842EFD12868C007C00FB8420BD92E
:100BB000286840084000384328602868C007C00FF4
:100BC000B84201D00120F8BD3078400706D56068F2
:100BD000072109028843F1680843606000F018F8B3
:100BE0006168094A0906090F515CC8400749086055
:100BF0000320FFF743FF0020F8BD00000020024063
:100C00000010024088130000A82D000850000020AA
:100C100010B514A30FCB88B06C460FC415A30FCB2F
:100C20000FC4184A51680C200B4603401648042B89
:100C300016D0082B14D18B021B0F6C46E45CD26AD1
:100C400004AB1207120F9A5CC90305D5002319469D
:100C5000FFF7BAFA214601E020460C4901F0C5FA37
:100C600008B010BD02030405060708090A0B0C0DA5
:100C70000E0F10100102030405060708090A0B0CE9
:100C80000D0E0F100010024000127A0000093D0006
:100C9000FEB5040070D02078DC4DC0074AD06868EB
:100CA0000007800F012807D068680007800F02281E
:100CB00009D16868C00306D5286880033AD5606802
:100CC0000028E7D036E06168012914D001208004B3
:100CD000002901D0052914D02A68012109048A437A
:100CE0002A602968814329606068002816D0FFF7D0
:100CF000A7FE06460EE02868012109040843286083
:100D0000F2E7296801432960F5E7FFF799FE801BA8
:100D100064286ED828688003F7D50BE0FFF790FEB3
:100D2000064604E0FFF78CFE801B6428F1D8286893
:100D30008003F7D420780126800700283CDA686811
:100D40000007800F07D068680007800F022809D1CC
:100D50006868C00306D42868800716D5E0680128B3
:100D60000AD112E0E0680028286816D030432860D5
:100D7000FFF766FE074605E043E1FFF761FEC01B93
:100D80000228C6D828688007F7D52868F821884344
:100D90002169C900084328600EE04008400028602F
:100DA000FFF74EFE074604E0FFF74AFEC01B02288D
:100DB000AFD828688007F7D42078000722D5E069EB
:100DC0000028686A0ED030436862FFF739FE074694
:100DD00004E0FFF735FEC01B02289AD8686A800736
:100DE000F7D50FE0400840006862FFF729FE07468C
:100DF00005E09DE0FFF724FEC01B022889D8686A41
:100E00008007F7D4207804274007002860DA002004
:100E10000190E869C00008D4E969B8060143E961B6
:100E2000E969014001200091019079480168C905F4
:100E300011D40168821511430160FFF701FE009093
:100E400005E0FFF7FDFD0099401A642870D870484E
:100E50000068C005F5D5A06801280AD0002801D097
:100E6000052810D0286A400840002862286AB84344
:100E700001E0286A30432862A068002812D0FFF7FA
:100E8000DFFD00900AE0286A38432862F1E7FFF7A7
:100E9000D7FD0099411A5F48814249D8286A8007E6
:100EA000F5D50DE0FFF7CCFD009006E0FFF7C8FD9B
:100EB0000099411A574881423AD8286A8007F5D4E8
:100EC0000198002804D0E969012000078143E96105
:100ED0002078C00635D5606901280CD0401D686BAC
:100EE00023D038436863686B400840006863FFF7AD
:100EF000A7FD064622E0686B38436863686B3043A1
:100F00006863FFF79DFD064604E0FFF799FD801B2F
:100F100002285BD8686B8007F7D5686BF821884397
:100F2000A169C900084368630BE0B8436863F4E74C
:100F30004CE0FFF785FD801B022847D8686B8007CF
:100F4000F7D4206A00285ED069680907890F022952
:100F500042D0012636060228286805D0B043286012
:100F6000FFF76EFD044633E0B0432860FFF768FDED
:100F7000074604E0FFF764FDC01B022826D8286856
:100F80008001F7D4E86AE16A000900010843E862D9
:100F9000616AA06A084369683D22120491430843CC
:100FA0006860286830432860FFF74AFD044604E083
:100FB000FFF746FD001B022808D828688001F7D5F6
:100FC00021E0FFF73DFD001B022801D90320FEBDF3
:100FD00028688001F5D416E00128F8D06868E96A2D
:100FE00001221204636A02409A420AD10907E26AA6
:100FF000090F914205D10F2189040840A16A884256
:1010000001D00120FEBD0020FEBD00000010024006
:101010000070004088130000094910B5401E884246
:1010200001D9012010BD074C60610321081F01F0A8
:1010300001F90020A06107202061002010BD000000
:10104000FFFFFF0000E000E07047704730B5034647
:1010500020331A7F012A26D001221A770325CA6875
:101060002D02AA438D6800242A430125AD02AA431C
:101070004D6800682A430125ED02AA430D682A4302
:1010800001252D03AA430D692A4301256D03AA43B7
:101090004D69C9692A430125AD03AA430A43426445
:1010A0001C77002030BD022030BD0000F0B50246A4
:1010B0002032137F012B1ED0012515770223537791
:1010C00006687468B3687027BC430F68274377606D
:1010D00000680A4CA04205D0094CA04202D0094C3D
:1010E000A04204D180244968A34319438160557705
:1010F00000201077F0BD0220F0BD0000002C014060
:10110000000400400040014070B5040005D02546B1
:101110002035687F002802D006E0012070BD002045
:101120002877204600F014F802206877211D2068F7
:1011300000F094FE01204034A071A877E877207079
:101140006070A070E070207160716877002070BDE1
:1011500010B586B0044614216846FFF715F92849F2
:10116000226828488A4210D18269C1140A438261E8
:10117000806900220840059011460D20FFF7C0FC51
:101180000D20FFF7B1FC06B010BD1F498A4205D102
:10119000C26989150A43C261C06924E01B4B012161
:1011A00049049A421AD183694A10134383618369BF
:1011B0001340059342690A43426140690840059023
:1011C00004200090022001900020029003900490DF
:1011D00009206946C006FFF74DFBD4E70C4B9A4245
:1011E00004D1826908E008400590CCE709498A42A9
:1011F000C9D18269012189040A4382618069F2E7C9
:10120000002C01400010024000200040004001403E
:101210000044014000480140014620314A7F012A34
:1012200001D00120704702224A770268D368012169
:101230000B43D3600068094A904205D0084A9042A7
:1012400002D0084A904204D182685207520F062AFF
:1012500002D002680A43026000207047002C01405F
:1012600000040040004001400168CA685208520072
:10127000CA6001680A6A084B1A4207D10A6A9B10C1
:101280001A4203D10A68520852000A600121203034
:10129000417700207047000011110000F8B50546A5
:1012A00004462035287F0026012817D00120287702
:1012B00002206877226890687727FF23B8431B02D3
:1012C000984390600868502838D00EDC20284FD012
:1012D00006DC00284CD010281ED149E00220F8BDC1
:1012E000302845D0402817D13AE060282ED0702809
:1012F00019D001221203801A0FD090420CD1CB6872
:101300004A688968206800F0FAFD20688168012237
:1013100092031143816000E00126012068770020DC
:1013200028773046F8BDCB684A688968206800F0A5
:10133000E6FD2168886838438860EEE7CA68496836
:10134000206800F0EBFE5021206806E0CA6849687A
:10135000206800F01DFF6021206800F0DBFDDCE765
:10136000CA684968206800F0D9FE40212068F4E787
:10137000226801461046F0E77047F8B504460020A1
:10138000264620360090307F0D4601280ED00120E1
:101390003077002A0CD0042A19D0082A2AD00C2A27
:1013A0004ED00090002030770098F8BD0220F8BDA4
:1013B000EB6806CD083D206800F0C2FE2068826917
:1013C0000C218A43826120688169AA680FE0EB687A
:1013D00006CD083D206800F0EEFE206881690322FA
:1013E00092029143816120688169AA6812021143C7
:1013F0008161D7E788CD287921688446086AFF2271
:10140000013290430862C8690A6A80088000384344
:10141000F027B84367463F073F0E074305204002C9
:1014200082430A20034018021043CF6108622068FB
:10143000C1690C229143C1612068C1692A682CE00E
:101440002B6820689E466F682B7B016ABC46012290
:10145000120391430162C169026A03273F02B94343
:1014600067463F020F430F2109038F431907090CF9
:10147000052339435B039A4373460A273B401B030A
:101480001343C16103622068C269032189028A4350
:10149000C2612068C169AA6812021143C16181E773
:1014A00070B5040005D025462035687F002802D09D
:1014B00006E0012070BD00202877204600F014F8D7
:1014C00002206877211D206800F0C8FC012040340C
:1014D000A071A877E87720706070A070E07020712C
:1014E00060716877002070BD704770B50446006871
:1014F00001690025C9438907002915DBC168C94373
:10150000890711D4E91E01610120207720688069D4
:101510008007204602D0FFF72FFF04E000F0EAF832
:10152000204600F075F9257720680169C94349070D
:1015300017D4C168C943490713D40421C9430161C1
:1015400002202077206880698005800F204602D025
:10155000FFF712FF04E000F0CDF8204600F058F944
:10156000257720680169C943090716D4C168C943B2
:10157000090712D40821C94301610420207720689B
:10158000C0698007204602D0FFF7F6FE04E000F0B5
:10159000B1F8204600F03CF9257720680169C9437D
:1015A000C90617D4C168C943C90613D41021C94359
:1015B0000161082020772068C0698005800F2046DF
:1015C00002D0FFF7D9FE04E000F094F8204600F0C6
:1015D0001FF9257720680169C943C90708D1C16887
:1015E000C943C90704D1891E0161204600F0B0F942
:1015F00020680169C943090609D4C168C9430906BD
:1016000005D48021C94301612046FFF71DFD2068F4
:101610000169C943490609D4C168C943490605D4CB
:101620004021C9430161204600F0A6F92068016904
:10163000C943890609D4C168C943890605D4202154
:10164000C94301612046FFF700FD70BD70B586B04B
:10165000044614216846FEF797FE214E01232568B3
:10166000092000221F495B040224C006B5420DD1A7
:101670004D691D434D614969029219400591072149
:10168000090201940494039200910FE0164EB542B2
:1016900011D14D691D434D6149690292194005916F
:1016A0001021009104210194039204916946FFF7EF
:1016B000E1F806B070BD0D488542FAD14B690120B2
:1016C000800403434B614969029201400591401235
:1016D000009001940494039269460548E7E70000EE
:1016E000002C014000100240002000400048014052
:1016F000000400487047F8B5064604462036307F9F
:1017000000270D4601280ED001203077002A0CD08A
:10171000042A1BD0082A2FD00C2A3ED001270020F3
:1017200030773846F8BD0220F8BD206800F0FAFB9B
:10173000206881690822114381612068826904213F
:101740008A438261206881692A6912E0206800F07A
:101750002DFC206882690121C9020A438261206848
:1017600081690122920291438161206881692A691D
:10177000120211438161D2E7206800F057FC206813
:10178000C16908221143C1612068C26904218A43EA
:10179000C2612068C1692A6912E0206800F088FCF3
:1017A0002068C1690122D2021143C1612068C26967
:1017B000012189028A43C2612068C1692A69120233
:1017C0001143C161ABE770B5040005D02546203553
:1017D000687F002802D006E0012070BD0020287735
:1017E000204600F014F802206877211D206800F0E0
:1017F00035FB01204034A071A877E8772070607035
:10180000A070E070207160716877002070BD704733
:101810007047000030B504460222203000290AD06B
:1018200004290DD02046403008290ED04378012BE2
:1018300010D0012030BD837F012BFAD182770AE0DE
:10184000C37F012BF5D1C27705E00378012BF0D1DE
:10185000027000E042700122206800F043FB124950
:101860002068124B884207D0984205D0104A904217
:1018700002D0104A904204D1426C0125ED032A4364
:10188000426420680122884204D00B49884201D07A
:10189000984204D181684907490F062902D001689E
:1018A00011430160002030BD002C01400040014088
:1018B00000440140004801400004004070B5044667
:1018C0000D460068002200F00DFB1D491B4B2068EF
:1018D0008A10984208D01B4B984205D01A4B984268
:1018E00002D01A4B98420AD1036A0B4207D1036A0D
:1018F000134204D1436C0126F603B34343642068CA
:10190000036A0B4206D1016A114203D101684908FA
:1019100049000160204620300121002D07D0042D10
:1019200007D04034082D06D06170002070BD81774B
:10193000FBE7C177F9E72170F7E70000002C0140D1
:1019400011110000004001400044014000480140E6
:1019500010B5064806490068884205D100F0CCFC65
:1019600004480168491C016010BD0000800200208D
:10197000002C0140400000207047FEE73EB50024E7
:101980002549264800940194029412C00460012560
:10199000856004214460C160047444748474C47418
:1019A000FF21C23184614161014618310C71056229
:1019B0000838FEF757FE002801D0FEF7C9FD0120C8
:1019C0000003019000040290009469461348FEF75A
:1019D000C1FD002801D0FEF7BBFD69460F48009508
:1019E000FEF7B8FD002801D0FEF7B2FD03200090FD
:1019F00069460A48FEF7AEFD002801D0FEF7A8FDB3
:101A00000920009069460548FEF7A4FD002801D092
:101A1000FEF79EFD3EBD0000002401404002002074
:101A2000F0B587B014216846FEF7AEFC2C48426939
:101A30000121C9040A43426142690A400592426990
:101A4000C9000A43426142690A400592426949114C
:101A50000A43426142690A400592426949000A43C9
:101A6000426140691F4D08401F4F059000222946E2
:101A70003846FEF7DEFFFE1300223146F003FEF784
:101A8000D8FF072040030024009001946946029487
:101A90001648FEF7EFFE232080010090019469466E
:101AA0000294F003FEF7E6FE1148009001946946A7
:101AB00002943846FEF7DEFE009501250294694641
:101AC000384601950394FEF7D5FE02946946F0036B
:101AD000009601950394FEF7CDFE07B0F0BD00001F
:101AE0000010024018E00000000400480008004810
:101AF000E504000010B588B01C216846FEF744FCE0
:101B000016481549016000242F218460416004615A
:101B1000C7218461C160FFF7F7FA002801D0FEF702
:101B200017FD0E48FFF74FFE002801D0FEF710FD0D
:101B30006020009095200190029400226946049450
:101B40000648FFF7D8FD002801D0FEF701FD034845
:101B5000FFF77CFD08B010BD00200040C802002047
:101B600010B58AB000240494059406940794089450
:101B7000204921480994009401940294039412C0CE
:101B800004608460C4601D49046141600838FFF747
:101B9000BBFA002801D0FEF7DBFC01200003049013
:101BA00004A91548FFF77AFB002801D0FEF7D0FC06
:101BB0001148FFF775FC002801D0FEF7C9FC089416
:101BC00008A90D480994FFF771FA002801D0FEF723
:101BD000BFFC012001900094029400226946039406
:101BE0000548FFF7CAFB002801D0FEF7B1FC0AB098
:101BF00010BD00000040014010030020FFFF000066
:101C000010B50A4808490160002141608160016106
:101C1000074A4161C2608161FFF776FA002801D06E
:101C2000FEF796FC10BD0000004401405803002060
:101C3000FFFF000010B590B01C2108A8FEF7A4FB20
:101C400020216846FEF7A0FB2148204901600024BE
:101C50002F21846041600461FF214461F43184617B
:101C6000C160FFF751FA002801D0FEF771FC184857
:101C7000FFF7A9FD002801D0FEF76AFC602008905C
:101C8000F9200E9409900A940B940C940D94002260
:101C900008A90F48FFF72FFD002801D0FEF758FCD8
:101CA000012000944003029405900194039404944D
:101CB000694607940648FFF7C9F9002801D0FEF7E6
:101CC00047FC0348FFF7C2FC10B010BD00480140BC
:101CD000A003002010B596B000240F941094119426
:101CE000129413941C2168461494FEF74DFB202196
:101CF00007A8FEF749FB3448324901602F21846070
:101D000041600461446163218461C160FFF7FCF9B3
:101D1000002801D0FEF71CFC012000030F900FA942
:101D20002948FFF7BBFA002801D0FEF711FC26482E
:101D3000FFF749FD002801D0FEF70AFC139413A910
:101D400021481494FFF7B2F9002801D0FEF700FCF7
:101D50006020009050200694019002940394049413
:101D60000594002269461848FFF7C5FC002801D0F9
:101D7000FEF7EEFB042269461348FFF7BCFC00287F
:101D800001D0FEF7E5FB082269460F48FFF7B3FCD8
:101D9000002801D0FEF7DCFB0120079440030994E2
:101DA0000C9008940A940B9407A90E940648FFF728
:101DB0004DF9002801D0FEF7CBFB0348FFF746FCA6
:101DC00016B010BD002C014080020020FEE77047D5
:101DD0007047000010B5012000F00AFF0249012001
:101DE0000860FEF733FE10BD1000002030B591B042
:101DF00030216846FEF7C8FA002411200F940090A5
:101E0000012001900590102006900E940003099087
:101E100000010D9402250A900C9408950B946846D5
:101E2000FEF736FF002801D072B6FEE707200C90BF
:101E30000E9401210D950F940CA8FEF765FE002865
:101E400001D072B6FEE711B030BD704710B5024840
:101E5000FFF74BFB10BD000080020020F0B50268C8
:101E60001A4B1B4C984201D0A04203D17025AA43C3
:101E70004D682A43174D184E184F98420AD0A04279
:101E800008D0174CA04205D0A84203D0B04201D0E0
:101E9000B84205D11446032212029443CA68224371
:101EA0008024A2434C69224302608A68C2620A68A5
:101EB0008262984205D0A84203D0B04201D0B84215
:101EC00001D10969016301214161F0BD002C01408C
:101ED000000400400040014000440140004801402F
:101EE0000020004010B5CB06DB0E0121046A9940AA
:101EF0008C430462016A9A401143016210BD30B5FF
:101F00008468FF252D021B021343AC430B4323437C
:101F1000836030BD826870239A430A4307210A43D5
:101F200082607047F0B5026A520852000262056A88
:101F3000436882697024A24392080C68920014439B
:101F4000022295438A68164E2A43144DA84207D0B0
:101F5000B04205D0134FB84202D0134FB84206D159
:101F60000827BA43CF681743042297433A46A8424A
:101F700007D0B04205D00B4DA84202D00A4DA8426E
:101F800006D103252D02AB434D691D438B692B43BD
:101F900043608461496841630262F0BD002C0140E6
:101FA00000400140004401400048014070B5026A11
:101FB00010239A430262056A4268836973242402EB
:101FC000A3430C6824021C4320239D438B681B0100
:101FD0002B43124DA84208D11D46CB688026B5433D
:101FE0001B012B434025AB4308E00D4DA84205D013
:101FF0000C4DA84202D00C4DA84208D10325AD02D9
:10200000AA434D69AD0015438A6992002A43426094
:10201000846149688163036270BD0000002C014047
:1020200000400140004401400048014070B5026A90
:10203000FF2301339A430262056A4368C269702430
:10204000A24392080C689200144301225202954365
:102050008A6812022A43124DA84208D11546CA685E
:10206000C614B54312022A430515AA4308E00D4DD4
:10207000A84205D00C4DA84202D00C4DA84208D170
:1020800003252D03AB434D692D011D438B691B01B6
:102090002B434360C4614968C163026270BD0000A4
:1020A000002C014000400140004401400048014034
:1020B00030B5026A01231B039A430262046A426834
:1020C000C36973252D02AB430D682D021D43012307
:1020D0005B039C438B681B0323430C4CA04208D03A
:1020E0000B4CA04205D00B4CA04202D00A4CA0429F
:1020F00005D10124A403A2434C69A40122434260F8
:10210000C56149680164036230BD0000002C0140D4
:1021100000400140004401400048014030B5036ADE
:10212000046A6408640004628469F025AC43120107
:1021300022430A24A3430B438261036230BD0000A3
:1021400070B5046A6408640004628469056A0D4E0F
:10215000B04205D00C4EB04202D00C4EB04202D17B
:10216000A408A40000E001221443F02294431A07BB
:10217000120E0A2322439D431940294382610162C2
:1021800070BD0000002C01400004004000400140F0
:1021900030B5036A1024A34303628469036A0F25E0
:1021A0002D031203AC432243A024A3430901194386
:1021B0008261016230BD70B5046A1025AC430462CF
:1021C0008569046A03263602B54312022A430F25A5
:1021D0002D031B071B0CAA431343A02209019443A0
:1021E000114021438361016270BDF8B5040C8BB2CC
:1021F000264682B25E430D0C1046370C5843360417
:1022000080190021794116466E43370C3604801937
:10221000794126466E438919F8BD30B47446641E70
:102220002578641CAB4200D21D46635D5B00E31859
:1022300030BC18478307FF22DB0E9A408907090E3E
:102240009940002808DB830809489B001B18186880
:1022500090430843186070470007000F0838830850
:1022600004489B001B18D86990430843D861704705
:1022700000E400E000ED00E070B5064E05460024E5
:10228000E000801900F02AF82855641C082CF7DBC0
:1022900070BD0000682D00080021024A8000115026
:1022A00070470000100000208100034840580028BB
:1022B00000D000477047000008000020034980005C
:1022C0000858012800D000207047000010000020AE
:1022D000014A8000115070470800002010B50446E4
:1022E00081880068FEF798FBA179884201D101201E
:1022F00010BD002010BD0000F8B501212748FEF7F1
:102300008BFB01250026264C01281FD026700927AB
:10231000FF0680213846FEF77FFB012818D0667043
:1023200040213846FEF778FB012813D0A67060786C
:10233000A178400089004018217840181849C0B29F
:10234000E070491E0978002906D008E02570DEE714
:102350006570E5E7A570EAE70721081AE070C0B2EA
:102360000300FFF75AFF0717080E0B14051117009B
:1023700000F04AFAF8BD00F065FAF8BD00F09EFAE8
:10238000F8BD00F07DFAF8BD00F0B6FAF8BD00F037
:10239000D1FAF8BD00F068FCF8BD00000004004868
:1023A00001000020F3B5144D81B0002129700121F6
:1023B00069702E46103611490C2250433768441874
:1023C000002F04D0A17A607A0023029AB8470298BD
:1023D000800022586878002804D0002A02D0A17A10
:1023E000607A90477668002E04D0A17A607A2B78C4
:1023F000029AB047FEBD0000180000203401002002
:10240000FFB51D4C81B0002020700126204666706B
:10241000083005680F46002D03D00022049B019868
:10242000A84701981C21484314494018B900455851
:102430006178002913D0002D11D0012F0BD0039902
:10244000002901D026700AE0807D002803D000F02A
:1024500081F8012803DC267004990198A8470648F2
:1024600008304568002D04D022783946049B019835
:10247000A84705B0F0BD000018000020540000205F
:1024800010B5E021084800F08BFB07483021E03010
:1024900000F086FB0821054800F082FB044901207A
:1024A00000F02AFC10BD0000540000202000002095
:1024B0009926000800B5002200F032F9002800D06B
:1024C0000122104600BD0000F3B581B0054600248E
:1024D00000F040F8022834D11D4B20460C2148431F
:1024E0000746C618307A002815D0707AA84204D161
:1024F000B07AFFF7DFFF002807D1B07AA8420AD1EF
:10250000707AFFF7D7FF002805D00C2060431858D9
:10251000002808D103E0641C042CDED311E0F81875
:10252000406800280DD00298002809DC0023E8B29A
:1025300001221946FFF764FF00212046FFF732FF12
:10254000FEBD0022E8B21146029BFFF759FFFEBD17
:102550003401002010B500242346D8B2FFF7AAFFAB
:10256000002800D0641C5B1C082BF6DB204610BD45
:1025700070B505460023C0B21A460121FFF740FF9F
:102580000F4E00240C2060438319187A002813D0C2
:10259000587AA84204D1987AFFF78CFF002807D117
:1025A000987AA84208D1587AFFF784FF002803D010
:1025B00001212046FFF7F6FE641C042CE2D370BD17
:1025C00034010020FEB507466846FFF755FE00259A
:1025D0002E461C212A464A432D4968465418182184
:1025E00040576156884206D0E17DC91949B2E1756C
:1025F000142901DB2076E675207E01280ED0E660E6
:10260000E8B200F08DF8617E814227D06076002824
:102610000FD0012813D0022820D117E0E06800284D
:1026200005D0C019E060EBD51A48E060E8E7142057
:10263000FBE7A68266822846FFF79AFF0EE0A68295
:10264000668200212846FFF73FFF07E0A6820023AD
:102650006682E8B21A460221FFF7D2FE607E0228A7
:1026600011D31020205E00280DDDA18AC91909B2FE
:10267000A182814207DBA682608A401C01B261828E
:102680002846FFF721FF6D1C082DA2DBFEBD0000D0
:1026900054000020FFFFFF7F10B5054C606800F07C
:1026A00093FAFFF78FFF00F0D9FA606010BD0000C9
:1026B0001800002010B51C23044C43431B1989004B
:1026C0005A50002100F004F810BD00005400002012
:1026D0001C225043034A80180182002181824182DA
:1026E000704700005400002010B500F0B7FA0A4906
:1026F00048600020094902461C2343435B18401CE4
:10270000DA750828F8DB0521012000F015FB05200B
:10271000FFF758FF10BD00001800002054000020F3
:102720001C21484307494018C068FF21F531884201
:1027300001DB02207047002801DD012070470020E6
:102740007047000054000020FEF788F9FFF74EFBA9
:10275000FFF766F9FFF712F9FFF7BCFAFFF7CAF9BE
:10276000FFF7FEF9FFF74CFAFFF764FA00F02CF9D7
:10277000FFF786FE13490020FFF7AAFD124A002149
:102780000320FFF797FF114A00210420FFF792FF73
:1027900000210F4A0846FFF78DFF0E4A0021012055
:1027A000FFF788FF01210C4A0846FFF783FF0B4A19
:1027B00000210220FFF77EFFFFF796FF00F010F8E0
:1027C000FCE70000992C0008352A0008152A0008AB
:1027D000F1290008512A0008712A0008612A00081E
:1027E00070B500252C46E0B2FFF768FD002806D042
:1027F000E0B2FFF751FDE0B2FFF756FD0125641C82
:10280000022CF0DB284670BD10B504210B48FFF701
:1028100055F808210948FFF751F8094C0521002215
:1028200049032046FEF705F900210448FEF7F2FFB0
:10283000012291032046FEF7FCF810BD8002002023
:102840000004004810B504210B48FFF737F80821B1
:102850000948FFF733F8094C0321002249032046B9
:10286000FEF7E7F800210448FEF7D4FF0122D10368
:102870002046FEF7DEF810BD80020020000400486C
:1028800010B500210B48FFF719F808210948FFF798
:1028900015F8094C0321002289032046FEF7C9F8E8
:1028A00004210448FEF7B6FF012251032046FEF73B
:1028B000C0F810BD800200200004004810B50021BF
:1028C0000B48FEF7FBFF08210948FEF7F7FF094C0C
:1028D0000321002249032046FEF7ABF804210448F7
:1028E000FEF798FF0122D1032046FEF7A2F810BDA3
:1028F000800200200004004810B500210B48FEF7BC
:10290000DDFF04210948FEF7D9FF094C032100220D
:1029100089032046FEF78DF808210448FEF77AFF68
:10292000012251032046FEF784F810BD80020020EA
:102930000004004810B500210B48FEF7BFFF04213A
:102940000948FEF7BBFF094C052100224903204638
:10295000FEF76FF808210448FEF75CFF012291039F
:102960002046FEF766F810BD8002002000040048F3
:1029700004480178002901D0002100E00121017004
:10298000704700000000002001798A00034989583F
:10299000002901D0006808477047000004020020A9
:1029A00010B5084C07E0206800F0FEF8FFF7ECFFD8
:1029B000206800F005F9206800F0FEF80028F2D049
:1029C00010BD00003000002010B507480823142275
:1029D0000449006800F0ECF804490120FFF778FC96
:1029E00010BD00006401002030000020A129000873
:1029F00010B500F039F90648FEF736FCC820FDF79F
:102A000027FFFFF7B5FF0248FEF706FC10BD0000E8
:102A10008002002010B5002210210448FEF709F8BA
:102A200000F022F90248FEF71FFC10BD0004004828
:102A30008002002010B5012210210348FDF7F9FFA4
:102A40000248FEF7E9FB10BD0004004880020020A8
:102A500010B500210148FEF7DDFE10BDC8020020C0
:102A600010B5012109200903C006FDF7DAFF10BDEA
:102A700010B500210148FEF721FF10BDC80200205B
:102A8000F8B5224D0E0004463ED40220205EB0422E
:102A90003ADD0020205E002836DD012809D004211F
:102AA000615E2046B14207D100F050F80546A08093
:102AB00027E00020A08024E000F065F8B04220D09C
:102AC000204600F060F80146204600F053F835B289
:102AD00007462E4613E03146204600F037F80C2218
:102AE000A25EA16850430B1810467043081819469F
:102AF000FDF7EBFB3146204600F028F80646BE42C3
:102B0000E9D12088401E20802846F8BDFFFFFFFF46
:102B10000021415E002907DD04210C22415E825E16
:102B200080685143081870470020704710B5002492
:102B30000480428084808381816010BD0021415ED9
:102B4000002901DC01207047002070470246491C23
:102B500008B20221515E814201DC401A00B2704786
:102B600010B50021415E002903DD0421415EFFF71D
:102B700087FF10BD0246491E08B2002802DA5188BC
:102B8000081800B27047014680880A88801802221F
:102B9000401E8A5E00B2824201DC801A00B2704799
:102BA00010B5FDF7EFFB10BD10B5FFF7B1FF10BD7D
:102BB00010B5FFF7BBFF10BD10B5FFF7BFFF10BD8D
:102BC00010B5FFF7CDFF10BD00B50249096800F050
:102BD00003F800BD34000020814201DB081A704771
:102BE000024A101A4018401C70470000FFFFFF7F88
:102BF0000649074A0B68D21A824202DA801A401E3E
:102C000000E0181808600120886070473400002038
:102C1000FFFFFF7F401A0549884202D3494288429C
:102C200001DA01207047002070470000FFFFFF3FDE
:102C3000014600B50248006800F004F800BD00003D
:102C400034000020044A121A8A4202DA881A401E0E
:102C50007047401870470000FFFFFF7F0148006881
:102C6000704700003400002010B5072100224903FE
:102C70000748FDF7DEFE00210648FEF71FFE04218F
:102C80000448FEF71BFE08210248FEF717FE10BDA0
:102C9000000400488002002010B5FF2000F002F878
:102CA00010BD0000F1B5FFF7D9FF124E0746002412
:102CB00020018519297B002918D031583846FFF7A3
:102CC000A9FF002812D0A87B009908420ED0687B8B
:102CD000002804D0E0B2696800F02EF802E0E0B20B
:102CE00000F038F8A868002800D08047641C022C47
:102CF000DEDBF8BD2002002000B5012200F002F862
:102D000000BD0000030102481818816082737047FB
:102D10002002002010B504460846FFF789FF02464E
:102D20000448210142500022081842730121017316
:102D300010BD00002002002070B50C460546FFF7CC
:102D4000E9FF03482901081801214460417370BD5F
:102D50002002002002010348002110180173417372
:102D600070470000200200200008004800200000FA
:102D70000004004804000000000800480040000073
:102D80000008004800800000000400480004000023
:102D90000000004800080000000400484000000057
:102DA0000004004880000000000000000000000057
:102DB0000102030406070809D82D000800000020BE
:102DC00054000000F80000082C2E000854000020D9
:102DD000F4090000140100080000000000000000D9
:102DE00000000000000000000000000000000000E3
:102DF00000000000000000000000000000000000D3
:102E00000000000000000000100200200000000090
:102E100000000000000000000000000001000000B1
:0C2E2000040000000000000000127A0016
:04000005080000B53A
:00000001FF
